{
  "contractName": "CryptoExchange",
  "abi": [
    {
      "inputs": [],
      "stateMutability": "nonpayable",
      "type": "constructor"
    },
    {
      "inputs": [],
      "name": "owner",
      "outputs": [
        {
          "internalType": "address",
          "name": "",
          "type": "address"
        }
      ],
      "stateMutability": "view",
      "type": "function",
      "constant": true
    },
    {
      "inputs": [],
      "name": "receiver",
      "outputs": [
        {
          "internalType": "address payable",
          "name": "walletAddress",
          "type": "address"
        },
        {
          "internalType": "string",
          "name": "Name",
          "type": "string"
        },
        {
          "internalType": "uint256",
          "name": "timestamp",
          "type": "uint256"
        },
        {
          "internalType": "uint256",
          "name": "amount",
          "type": "uint256"
        },
        {
          "internalType": "bool",
          "name": "hasReceived",
          "type": "bool"
        }
      ],
      "stateMutability": "view",
      "type": "function",
      "constant": true
    },
    {
      "inputs": [],
      "name": "getOwnerBalance",
      "outputs": [
        {
          "internalType": "uint256",
          "name": "",
          "type": "uint256"
        }
      ],
      "stateMutability": "view",
      "type": "function",
      "constant": true
    },
    {
      "inputs": [
        {
          "internalType": "address payable",
          "name": "walletAddress",
          "type": "address"
        },
        {
          "internalType": "string",
          "name": "name",
          "type": "string"
        },
        {
          "internalType": "uint256",
          "name": "amount",
          "type": "uint256"
        }
      ],
      "name": "addReceiver",
      "outputs": [],
      "stateMutability": "nonpayable",
      "type": "function"
    },
    {
      "inputs": [],
      "name": "withdrawToken",
      "outputs": [],
      "stateMutability": "payable",
      "type": "function",
      "payable": true
    }
  ],
  "bytecode": "0x608060405234801561001057600080fd5b50336000806101000a81548173ffffffffffffffffffffffffffffffffffffffff021916908373ffffffffffffffffffffffffffffffffffffffff160217905550610acd806100606000396000f3fe60806040526004361061004a5760003560e01c8063590791f21461004f5780638da5cb5b1461007a578063ac854c59146100a5578063ca628c78146100ce578063f7260d3e146100d8575b600080fd5b34801561005b57600080fd5b50610064610107565b604051610071919061040c565b60405180910390f35b34801561008657600080fd5b5061008f610147565b60405161009c9190610468565b60405180910390f35b3480156100b157600080fd5b506100cc60048036038101906100c79190610647565b61016b565b005b6100d6610246565b005b3480156100e457600080fd5b506100ed61031a565b6040516100fe95949392919061075f565b60405180910390f35b60008060009054906101000a900473ffffffffffffffffffffffffffffffffffffffff1673ffffffffffffffffffffffffffffffffffffffff1631905090565b60008054906101000a900473ffffffffffffffffffffffffffffffffffffffff1681565b6040518060a001604052808473ffffffffffffffffffffffffffffffffffffffff16815260200183815260200142815260200182815260200160001515815250600160008201518160000160006101000a81548173ffffffffffffffffffffffffffffffffffffffff021916908373ffffffffffffffffffffffffffffffffffffffff160217905550602082015181600101908161020991906109c5565b50604082015181600201556060820151816003015560808201518160040160006101000a81548160ff021916908315150217905550905050505050565b3460008054906101000a900473ffffffffffffffffffffffffffffffffffffffff1673ffffffffffffffffffffffffffffffffffffffff16311061031857600160000160009054906101000a900473ffffffffffffffffffffffffffffffffffffffff1673ffffffffffffffffffffffffffffffffffffffff166108fc349081150290604051600060405180830381858888f193505050501580156102ef573d6000803e3d6000fd5b503460016003018190555060018060040160006101000a81548160ff0219169083151502179055505b565b60018060000160009054906101000a900473ffffffffffffffffffffffffffffffffffffffff1690806001018054610351906107e8565b80601f016020809104026020016040519081016040528092919081815260200182805461037d906107e8565b80156103ca5780601f1061039f576101008083540402835291602001916103ca565b820191906000526020600020905b8154815290600101906020018083116103ad57829003601f168201915b5050505050908060020154908060030154908060040160009054906101000a900460ff16905085565b6000819050919050565b610406816103f3565b82525050565b600060208201905061042160008301846103fd565b92915050565b600073ffffffffffffffffffffffffffffffffffffffff82169050919050565b600061045282610427565b9050919050565b61046281610447565b82525050565b600060208201905061047d6000830184610459565b92915050565b6000604051905090565b600080fd5b600080fd5b60006104a282610427565b9050919050565b6104b281610497565b81146104bd57600080fd5b50565b6000813590506104cf816104a9565b92915050565b600080fd5b600080fd5b6000601f19601f8301169050919050565b7f4e487b7100000000000000000000000000000000000000000000000000000000600052604160045260246000fd5b610528826104df565b810181811067ffffffffffffffff82111715610547576105466104f0565b5b80604052505050565b600061055a610483565b9050610566828261051f565b919050565b600067ffffffffffffffff821115610586576105856104f0565b5b61058f826104df565b9050602081019050919050565b82818337600083830152505050565b60006105be6105b98461056b565b610550565b9050828152602081018484840111156105da576105d96104da565b5b6105e584828561059c565b509392505050565b600082601f830112610602576106016104d5565b5b81356106128482602086016105ab565b91505092915050565b610624816103f3565b811461062f57600080fd5b50565b6000813590506106418161061b565b92915050565b6000806000606084860312156106605761065f61048d565b5b600061066e868287016104c0565b935050602084013567ffffffffffffffff81111561068f5761068e610492565b5b61069b868287016105ed565b92505060406106ac86828701610632565b9150509250925092565b6106bf81610497565b82525050565b600081519050919050565b600082825260208201905092915050565b60005b838110156106ff5780820151818401526020810190506106e4565b60008484015250505050565b6000610716826106c5565b61072081856106d0565b93506107308185602086016106e1565b610739816104df565b840191505092915050565b60008115159050919050565b61075981610744565b82525050565b600060a08201905061077460008301886106b6565b8181036020830152610786818761070b565b905061079560408301866103fd565b6107a260608301856103fd565b6107af6080830184610750565b9695505050505050565b7f4e487b7100000000000000000000000000000000000000000000000000000000600052602260045260246000fd5b6000600282049050600182168061080057607f821691505b602082108103610813576108126107b9565b5b50919050565b60008190508160005260206000209050919050565b60006020601f8301049050919050565b600082821b905092915050565b60006008830261087b7fffffffffffffffffffffffffffffffffffffffffffffffffffffffffffffffff8261083e565b610885868361083e565b95508019841693508086168417925050509392505050565b6000819050919050565b60006108c26108bd6108b8846103f3565b61089d565b6103f3565b9050919050565b6000819050919050565b6108dc836108a7565b6108f06108e8826108c9565b84845461084b565b825550505050565b600090565b6109056108f8565b6109108184846108d3565b505050565b5b81811015610934576109296000826108fd565b600181019050610916565b5050565b601f8211156109795761094a81610819565b6109538461082e565b81016020851015610962578190505b61097661096e8561082e565b830182610915565b50505b505050565b600082821c905092915050565b600061099c6000198460080261097e565b1980831691505092915050565b60006109b5838361098b565b9150826002028217905092915050565b6109ce826106c5565b67ffffffffffffffff8111156109e7576109e66104f0565b5b6109f182546107e8565b6109fc828285610938565b600060209050601f831160018114610a2f5760008415610a1d578287015190505b610a2785826109a9565b865550610a8f565b601f198416610a3d86610819565b60005b82811015610a6557848901518255600182019150602085019450602081019050610a40565b86831015610a825784890151610a7e601f89168261098b565b8355505b6001600288020188555050505b50505050505056fea2646970667358221220f080112000ec8a6faab164bbaa9766bc51f0505131ec1fddbecc7d0feee2707664736f6c63430008130033",
  "immutableReferences": {},
  "source": "// SPDX-License-Identifier: Unlicensed\r\n\r\npragma solidity 0.8.19;\r\n\r\ncontract CryptoExchange {\r\n    address public owner;\r\n    // Receiver[] public receivers;\r\n    Receiver public receiver;\r\n\r\n    constructor() {\r\n        owner = msg.sender;\r\n    }\r\n\r\n    struct Receiver {\r\n        address payable walletAddress;\r\n        string Name;\r\n        uint256 timestamp;\r\n        uint256 amount; //s tin cn chuyn n\r\n        bool hasReceived;\r\n    }\r\n\r\n    function getOwnerBalance() public view returns (uint) {\r\n        return owner.balance;\r\n    }   \r\n\r\n    function addReceiver(address payable walletAddress, string memory name, uint256 amount) public {\r\n        receiver = Receiver(walletAddress, name, block.timestamp, amount, false);\r\n    }\r\n\r\n    // function balanceOf() public view returns (uint256) {\r\n    //     return address(this).balance;\r\n    // }\r\n\r\n    // function deposit(address payable walletAddress) public payable {\r\n    //     receivers[getReceiverIndex(walletAddress)].amount += msg.value;\r\n    // }\r\n\r\n    function withdrawToken() public payable {\r\n        // Kim tra ngi thc hin c  token hay khng\r\n        // require(owner.balance <= msg.value, \"Not enough tokens\");\r\n        if (owner.balance >= msg.value){\r\n            receiver.walletAddress.transfer(msg.value);\r\n            receiver.amount = msg.value;\r\n            receiver.hasReceived = true;\r\n        }\r\n    }\r\n\r\n}\r\n",
  "sourcePath": "D:\\baitap\\Blockchain\\Truffle\\contracts\\CryptoContract.sol",
  "compiler": {
    "name": "solc",
    "version": "0.8.19+commit.7dd6d404.Emscripten.clang"
  },
  "schemaVersion": "3.4.16",
  "updatedAt": "2023-12-25T07:51:36.304Z",
  "networkType": "ethereum",
  "devdoc": {
    "kind": "dev",
    "methods": {},
    "version": 1
  },
  "userdoc": {
    "kind": "user",
    "methods": {},
    "version": 1
  }
}