{
  "contractName": "CryptoExchange",
  "abi": [
    {
      "inputs": [],
      "stateMutability": "nonpayable",
      "type": "constructor"
    },
    {
      "inputs": [],
      "name": "owner",
      "outputs": [
        {
          "internalType": "address",
          "name": "",
          "type": "address"
        }
      ],
      "stateMutability": "view",
      "type": "function",
      "constant": true
    },
    {
      "inputs": [],
      "name": "receiver",
      "outputs": [
        {
          "internalType": "address payable",
          "name": "walletAddress",
          "type": "address"
        },
        {
          "internalType": "string",
          "name": "Name",
          "type": "string"
        },
        {
          "internalType": "uint256",
          "name": "userBalance",
          "type": "uint256"
        },
        {
          "internalType": "uint256",
          "name": "timestamp",
          "type": "uint256"
        },
        {
          "internalType": "uint256",
          "name": "amount",
          "type": "uint256"
        },
        {
          "internalType": "bool",
          "name": "hasReceived",
          "type": "bool"
        }
      ],
      "stateMutability": "view",
      "type": "function",
      "constant": true
    },
    {
      "inputs": [],
      "name": "getOwnerBalance",
      "outputs": [
        {
          "internalType": "uint256",
          "name": "",
          "type": "uint256"
        }
      ],
      "stateMutability": "view",
      "type": "function",
      "constant": true
    },
    {
      "inputs": [
        {
          "internalType": "address payable",
          "name": "walletAddress",
          "type": "address"
        },
        {
          "internalType": "string",
          "name": "name",
          "type": "string"
        },
        {
          "internalType": "uint256",
          "name": "amount",
          "type": "uint256"
        }
      ],
      "name": "addReceiver",
      "outputs": [
        {
          "internalType": "bool",
          "name": "",
          "type": "bool"
        }
      ],
      "stateMutability": "nonpayable",
      "type": "function"
    },
    {
      "inputs": [],
      "name": "withdrawToken",
      "outputs": [
        {
          "internalType": "bool",
          "name": "",
          "type": "bool"
        }
      ],
      "stateMutability": "payable",
      "type": "function",
      "payable": true
    }
  ],
  "bytecode": "0x608060405234801561001057600080fd5b50336000806101000a81548173ffffffffffffffffffffffffffffffffffffffff021916908373ffffffffffffffffffffffffffffffffffffffff160217905550610baa806100606000396000f3fe60806040526004361061004a5760003560e01c8063590791f21461004f5780638da5cb5b1461007a578063ac854c59146100a5578063ca628c78146100e2578063f7260d3e14610100575b600080fd5b34801561005b57600080fd5b50610064610130565b60405161007191906104c0565b60405180910390f35b34801561008657600080fd5b5061008f610170565b60405161009c919061051c565b60405180910390f35b3480156100b157600080fd5b506100cc60048036038101906100c791906106fb565b610194565b6040516100d99190610785565b60405180910390f35b6100ea61029e565b6040516100f79190610785565b60405180910390f35b34801561010c57600080fd5b506101156103c8565b6040516101279695949392919061082e565b60405180910390f35b60008060009054906101000a900473ffffffffffffffffffffffffffffffffffffffff1673ffffffffffffffffffffffffffffffffffffffff1631905090565b60008054906101000a900473ffffffffffffffffffffffffffffffffffffffff1681565b60006040518060c001604052808573ffffffffffffffffffffffffffffffffffffffff1681526020018481526020018573ffffffffffffffffffffffffffffffffffffffff1631815260200142815260200183815260200160001515815250600160008201518160000160006101000a81548173ffffffffffffffffffffffffffffffffffffffff021916908373ffffffffffffffffffffffffffffffffffffffff16021790555060208201518160010190816102519190610aa2565b5060408201518160020155606082015181600301556080820151816004015560a08201518160050160006101000a81548160ff021916908315150217905550905050600190509392505050565b60003460008054906101000a900473ffffffffffffffffffffffffffffffffffffffff1673ffffffffffffffffffffffffffffffffffffffff1631106103c057600160000160009054906101000a900473ffffffffffffffffffffffffffffffffffffffff1673ffffffffffffffffffffffffffffffffffffffff166108fc349081150290604051600060405180830381858888f19350505050158015610349573d6000803e3d6000fd5b5034600160040181905550600160000160009054906101000a900473ffffffffffffffffffffffffffffffffffffffff1673ffffffffffffffffffffffffffffffffffffffff163160016002018190555060018060050160006101000a81548160ff021916908315150217905550600190506103c5565b600090505b90565b60018060000160009054906101000a900473ffffffffffffffffffffffffffffffffffffffff16908060010180546103ff906108c5565b80601f016020809104026020016040519081016040528092919081815260200182805461042b906108c5565b80156104785780601f1061044d57610100808354040283529160200191610478565b820191906000526020600020905b81548152906001019060200180831161045b57829003601f168201915b5050505050908060020154908060030154908060040154908060050160009054906101000a900460ff16905086565b6000819050919050565b6104ba816104a7565b82525050565b60006020820190506104d560008301846104b1565b92915050565b600073ffffffffffffffffffffffffffffffffffffffff82169050919050565b6000610506826104db565b9050919050565b610516816104fb565b82525050565b6000602082019050610531600083018461050d565b92915050565b6000604051905090565b600080fd5b600080fd5b6000610556826104db565b9050919050565b6105668161054b565b811461057157600080fd5b50565b6000813590506105838161055d565b92915050565b600080fd5b600080fd5b6000601f19601f8301169050919050565b7f4e487b7100000000000000000000000000000000000000000000000000000000600052604160045260246000fd5b6105dc82610593565b810181811067ffffffffffffffff821117156105fb576105fa6105a4565b5b80604052505050565b600061060e610537565b905061061a82826105d3565b919050565b600067ffffffffffffffff82111561063a576106396105a4565b5b61064382610593565b9050602081019050919050565b82818337600083830152505050565b600061067261066d8461061f565b610604565b90508281526020810184848401111561068e5761068d61058e565b5b610699848285610650565b509392505050565b600082601f8301126106b6576106b5610589565b5b81356106c684826020860161065f565b91505092915050565b6106d8816104a7565b81146106e357600080fd5b50565b6000813590506106f5816106cf565b92915050565b60008060006060848603121561071457610713610541565b5b600061072286828701610574565b935050602084013567ffffffffffffffff81111561074357610742610546565b5b61074f868287016106a1565b9250506040610760868287016106e6565b9150509250925092565b60008115159050919050565b61077f8161076a565b82525050565b600060208201905061079a6000830184610776565b92915050565b6107a98161054b565b82525050565b600081519050919050565b600082825260208201905092915050565b60005b838110156107e95780820151818401526020810190506107ce565b60008484015250505050565b6000610800826107af565b61080a81856107ba565b935061081a8185602086016107cb565b61082381610593565b840191505092915050565b600060c08201905061084360008301896107a0565b818103602083015261085581886107f5565b905061086460408301876104b1565b61087160608301866104b1565b61087e60808301856104b1565b61088b60a0830184610776565b979650505050505050565b7f4e487b7100000000000000000000000000000000000000000000000000000000600052602260045260246000fd5b600060028204905060018216806108dd57607f821691505b6020821081036108f0576108ef610896565b5b50919050565b60008190508160005260206000209050919050565b60006020601f8301049050919050565b600082821b905092915050565b6000600883026109587fffffffffffffffffffffffffffffffffffffffffffffffffffffffffffffffff8261091b565b610962868361091b565b95508019841693508086168417925050509392505050565b6000819050919050565b600061099f61099a610995846104a7565b61097a565b6104a7565b9050919050565b6000819050919050565b6109b983610984565b6109cd6109c5826109a6565b848454610928565b825550505050565b600090565b6109e26109d5565b6109ed8184846109b0565b505050565b5b81811015610a1157610a066000826109da565b6001810190506109f3565b5050565b601f821115610a5657610a27816108f6565b610a308461090b565b81016020851015610a3f578190505b610a53610a4b8561090b565b8301826109f2565b50505b505050565b600082821c905092915050565b6000610a7960001984600802610a5b565b1980831691505092915050565b6000610a928383610a68565b9150826002028217905092915050565b610aab826107af565b67ffffffffffffffff811115610ac457610ac36105a4565b5b610ace82546108c5565b610ad9828285610a15565b600060209050601f831160018114610b0c5760008415610afa578287015190505b610b048582610a86565b865550610b6c565b601f198416610b1a866108f6565b60005b82811015610b4257848901518255600182019150602085019450602081019050610b1d565b86831015610b5f5784890151610b5b601f891682610a68565b8355505b6001600288020188555050505b50505050505056fea2646970667358221220756fadb481b68feb63cdd08285b4caefff1a11b226c5997c1d656f689957cb7764736f6c63430008130033",
  "immutableReferences": {},
  "source": "// SPDX-License-Identifier: Unlicensed\n\npragma solidity 0.8.19;\n\ncontract CryptoExchange {\n    address public owner;\n    // Receiver[] public receivers;\n    Receiver public receiver;\n\n    constructor() {\n        owner = msg.sender;\n    }\n\n    struct Receiver {\n        address payable walletAddress;\n        string Name;\n        uint userBalance;\n        uint256 timestamp;\n        uint256 amount; //s tin cn chuyn n\n        bool hasReceived;\n    }\n\n    function getOwnerBalance() public view returns (uint) {\n        return owner.balance;\n    }   \n\n    function addReceiver(address payable walletAddress, string memory name, uint256 amount) public returns (bool){\n        receiver = Receiver(walletAddress, name, walletAddress.balance, block.timestamp, amount, false);\n        return true;\n    }\n\n    // function balanceOf() public view returns (uint256) {\n    //     return address(this).balance;\n    // }\n\n    // function deposit(address payable walletAddress) public payable {\n    //     receivers[getReceiverIndex(walletAddress)].amount += msg.value;\n    // }\n\n    //Phng thc chuyn ETH\n    function withdrawToken() public payable returns (bool){\n        // Kim tra ngi thc hin c  token hay khng\n        // require(owner.balance <= msg.value, \"Not enough tokens\");\n        if (owner.balance >= msg.value){\n            receiver.walletAddress.transfer(msg.value);\n            receiver.amount = msg.value;\n            receiver.userBalance = receiver.walletAddress.balance;\n            receiver.hasReceived = true;\n            return true;\n        }\n        return false;\n    }\n\n}\n",
  "sourcePath": "/Users/truongpham/Downloads/blockchain/Blockchain-Crypto-Trade-ETH/contracts/CryptoContract.sol",
  "compiler": {
    "name": "solc",
    "version": "0.8.19+commit.7dd6d404.Emscripten.clang"
  },
  "schemaVersion": "3.4.16",
  "updatedAt": "2023-12-26T17:40:58.118Z",
  "networkType": "ethereum",
  "devdoc": {
    "kind": "dev",
    "methods": {},
    "version": 1
  },
  "userdoc": {
    "kind": "user",
    "methods": {},
    "version": 1
  }
}