{
  "contractName": "CryptoExchange",
  "abi": [
    {
      "inputs": [],
      "stateMutability": "nonpayable",
      "type": "constructor"
    },
    {
      "inputs": [],
      "name": "getReceiver",
      "outputs": [
        {
          "components": [
            {
              "internalType": "address payable",
              "name": "walletAddress",
              "type": "address"
            },
            {
              "internalType": "string",
              "name": "Name",
              "type": "string"
            },
            {
              "internalType": "uint256",
              "name": "timestamp",
              "type": "uint256"
            },
            {
              "internalType": "uint256",
              "name": "amount",
              "type": "uint256"
            },
            {
              "internalType": "bool",
              "name": "hasReceived",
              "type": "bool"
            }
          ],
          "internalType": "struct CryptoExchange.Receiver",
          "name": "",
          "type": "tuple"
        }
      ],
      "stateMutability": "view",
      "type": "function"
    },
    {
      "inputs": [],
      "name": "getBalance",
      "outputs": [
        {
          "internalType": "uint256",
          "name": "",
          "type": "uint256"
        }
      ],
      "stateMutability": "view",
      "type": "function"
    },
    {
      "inputs": [
        {
          "internalType": "address payable",
          "name": "walletAddress",
          "type": "address"
        },
        {
          "internalType": "string",
          "name": "name",
          "type": "string"
        },
        {
          "internalType": "uint256",
          "name": "amount",
          "type": "uint256"
        }
      ],
      "name": "addReceiver",
      "outputs": [],
      "stateMutability": "nonpayable",
      "type": "function"
    },
    {
      "inputs": [],
      "name": "withdrawToken",
      "outputs": [],
      "stateMutability": "payable",
      "type": "function"
    }
  ],
  "bytecode": "0x608060405234801561001057600080fd5b50336000806101000a81548173ffffffffffffffffffffffffffffffffffffffff021916908373ffffffffffffffffffffffffffffffffffffffff160217905550610b1f806100606000396000f3fe60806040526004361061003f5760003560e01c806312065fe01461004457806398aca9221461006f578063ac854c591461009a578063ca628c78146100c3575b600080fd5b34801561005057600080fd5b506100596100cd565b604051610066919061044d565b60405180910390f35b34801561007b57600080fd5b5061008461010d565b60405161009191906105d9565b60405180910390f35b3480156100a657600080fd5b506100c160048036038101906100bc919061079c565b61023e565b005b6100cb610319565b005b60008060009054906101000a900473ffffffffffffffffffffffffffffffffffffffff1673ffffffffffffffffffffffffffffffffffffffff1631905090565b6101156103ed565b60016040518060a00160405290816000820160009054906101000a900473ffffffffffffffffffffffffffffffffffffffff1673ffffffffffffffffffffffffffffffffffffffff1673ffffffffffffffffffffffffffffffffffffffff1681526020016001820180546101889061083a565b80601f01602080910402602001604051908101604052809291908181526020018280546101b49061083a565b80156102015780601f106101d657610100808354040283529160200191610201565b820191906000526020600020905b8154815290600101906020018083116101e457829003601f168201915b5050505050815260200160028201548152602001600382015481526020016004820160009054906101000a900460ff161515151581525050905090565b6040518060a001604052808473ffffffffffffffffffffffffffffffffffffffff16815260200183815260200142815260200182815260200160001515815250600160008201518160000160006101000a81548173ffffffffffffffffffffffffffffffffffffffff021916908373ffffffffffffffffffffffffffffffffffffffff16021790555060208201518160010190816102dc9190610a17565b50604082015181600201556060820151816003015560808201518160040160006101000a81548160ff021916908315150217905550905050505050565b3460008054906101000a900473ffffffffffffffffffffffffffffffffffffffff1673ffffffffffffffffffffffffffffffffffffffff1631106103eb57600160000160009054906101000a900473ffffffffffffffffffffffffffffffffffffffff1673ffffffffffffffffffffffffffffffffffffffff166108fc349081150290604051600060405180830381858888f193505050501580156103c2573d6000803e3d6000fd5b503460016003018190555060018060040160006101000a81548160ff0219169083151502179055505b565b6040518060a00160405280600073ffffffffffffffffffffffffffffffffffffffff1681526020016060815260200160008152602001600081526020016000151581525090565b6000819050919050565b61044781610434565b82525050565b6000602082019050610462600083018461043e565b92915050565b600073ffffffffffffffffffffffffffffffffffffffff82169050919050565b600061049382610468565b9050919050565b6104a381610488565b82525050565b600081519050919050565b600082825260208201905092915050565b60005b838110156104e35780820151818401526020810190506104c8565b60008484015250505050565b6000601f19601f8301169050919050565b600061050b826104a9565b61051581856104b4565b93506105258185602086016104c5565b61052e816104ef565b840191505092915050565b61054281610434565b82525050565b60008115159050919050565b61055d81610548565b82525050565b600060a08301600083015161057b600086018261049a565b50602083015184820360208601526105938282610500565b91505060408301516105a86040860182610539565b5060608301516105bb6060860182610539565b5060808301516105ce6080860182610554565b508091505092915050565b600060208201905081810360008301526105f38184610563565b905092915050565b6000604051905090565b600080fd5b600080fd5b61061881610488565b811461062357600080fd5b50565b6000813590506106358161060f565b92915050565b600080fd5b600080fd5b7f4e487b7100000000000000000000000000000000000000000000000000000000600052604160045260246000fd5b61067d826104ef565b810181811067ffffffffffffffff8211171561069c5761069b610645565b5b80604052505050565b60006106af6105fb565b90506106bb8282610674565b919050565b600067ffffffffffffffff8211156106db576106da610645565b5b6106e4826104ef565b9050602081019050919050565b82818337600083830152505050565b600061071361070e846106c0565b6106a5565b90508281526020810184848401111561072f5761072e610640565b5b61073a8482856106f1565b509392505050565b600082601f8301126107575761075661063b565b5b8135610767848260208601610700565b91505092915050565b61077981610434565b811461078457600080fd5b50565b60008135905061079681610770565b92915050565b6000806000606084860312156107b5576107b4610605565b5b60006107c386828701610626565b935050602084013567ffffffffffffffff8111156107e4576107e361060a565b5b6107f086828701610742565b925050604061080186828701610787565b9150509250925092565b7f4e487b7100000000000000000000000000000000000000000000000000000000600052602260045260246000fd5b6000600282049050600182168061085257607f821691505b6020821081036108655761086461080b565b5b50919050565b60008190508160005260206000209050919050565b60006020601f8301049050919050565b600082821b905092915050565b6000600883026108cd7fffffffffffffffffffffffffffffffffffffffffffffffffffffffffffffffff82610890565b6108d78683610890565b95508019841693508086168417925050509392505050565b6000819050919050565b600061091461090f61090a84610434565b6108ef565b610434565b9050919050565b6000819050919050565b61092e836108f9565b61094261093a8261091b565b84845461089d565b825550505050565b600090565b61095761094a565b610962818484610925565b505050565b5b818110156109865761097b60008261094f565b600181019050610968565b5050565b601f8211156109cb5761099c8161086b565b6109a584610880565b810160208510156109b4578190505b6109c86109c085610880565b830182610967565b50505b505050565b600082821c905092915050565b60006109ee600019846008026109d0565b1980831691505092915050565b6000610a0783836109dd565b9150826002028217905092915050565b610a20826104a9565b67ffffffffffffffff811115610a3957610a38610645565b5b610a43825461083a565b610a4e82828561098a565b600060209050601f831160018114610a815760008415610a6f578287015190505b610a7985826109fb565b865550610ae1565b601f198416610a8f8661086b565b60005b82811015610ab757848901518255600182019150602085019450602081019050610a92565b86831015610ad45784890151610ad0601f8916826109dd565b8355505b6001600288020188555050505b50505050505056fea26469706673582212207da5a11d8ded56b165c2833571cb704353f8425084632c5f52dc4299563bddd964736f6c63430008130033",
  "immutableReferences": {},
  "source": "// SPDX-License-Identifier: Unlicensed\r\n\r\npragma solidity 0.8.19;\r\n\r\ncontract CryptoExchange {\r\n    address owner;\r\n    // Receiver[] public receivers;\r\n    Receiver receiver;\r\n\r\n    constructor() {\r\n        owner = msg.sender;\r\n    }\r\n\r\n    struct Receiver {\r\n        address payable walletAddress;\r\n        string Name;\r\n        uint256 timestamp;\r\n        uint256 amount; //s tin cn chuyn n\r\n        bool hasReceived;\r\n    }\r\n\r\n    // Receiver receiver;\r\n\r\n    // function getReceiverIndex(address payable walletAddress) private view returns (uint256)\r\n    // {\r\n    //     for (uint256 i = 0; i < receivers.length; i++) {\r\n    //         if (receivers[i].walletAddress == walletAddress) {\r\n    //             return i;\r\n    //         }\r\n    //     }\r\n    //     return 9999;\r\n    // }\r\n\r\n    // add receiver to contract\r\n    // function addReceiver(address payable walletAddress, string memory name, uint256 timestamp, uint256 amount, bool hasReceived) public {\r\n    //     if (getReceiverIndex(walletAddress) == 9999) {\r\n    //         receivers.push(Receiver(walletAddress, name, timestamp, amount , hasReceived));\r\n    //     }\r\n    // }\r\n    function getReceiver() public view returns (Receiver memory) {\r\n        return receiver;\r\n    }\r\n\r\n    function getBalance() public view returns (uint) {\r\n        return owner.balance;\r\n    }   \r\n\r\n    function addReceiver(address payable walletAddress, string memory name, uint256 amount) public {\r\n        receiver = Receiver(walletAddress, name, block.timestamp, amount, false);\r\n    }\r\n\r\n    // function balanceOf() public view returns (uint256) {\r\n    //     return address(this).balance;\r\n    // }\r\n\r\n    // function deposit(address payable walletAddress) public payable {\r\n    //     receivers[getReceiverIndex(walletAddress)].amount += msg.value;\r\n    // }\r\n\r\n    // function withdrawToken(address payable walletAddress) public payable {\r\n    //     Receiver memory tmpReceiver = receivers[getReceiverIndex(walletAddress)];\r\n    //     tmpReceiver.walletAddress.transfer(tmpReceiver.amount);\r\n    // }\r\n\r\n    function withdrawToken() public payable {\r\n        // Kim tra ngi thc hin c  token hay khng\r\n        // require(owner.balance <= msg.value, \"Not enough tokens\");\r\n        if (owner.balance >= msg.value){\r\n            receiver.walletAddress.transfer(msg.value);\r\n            receiver.amount = msg.value;\r\n            receiver.hasReceived = true;\r\n        }\r\n    }\r\n\r\n}\r\n",
  "sourcePath": "D:\\baitap\\Blockchain\\Truffle\\contracts\\CryptoContract.sol",
  "compiler": {
    "name": "solc",
    "version": "0.8.19+commit.7dd6d404.Emscripten.clang"
  },
  "schemaVersion": "3.4.16",
  "updatedAt": "2023-12-25T04:34:26.479Z",
  "devdoc": {
    "kind": "dev",
    "methods": {},
    "version": 1
  },
  "userdoc": {
    "kind": "user",
    "methods": {},
    "version": 1
  }
}